:1000000012C02CC02BC02AC029C028C027C026C0BF
:1000100025C024C023C0C2C021C020C01FC01EC034
:100020001DC01CC01BC011241FBECFE5D4E0DEBF25
:10003000CDBF10E0A0E6B0E0E8E4FDE002C005902E
:100040000D92AE3CB107D9F711E0AEECB0E001C0C3
:100050001D92A437B107E1F72DD274C6D1CF9C0110
:1000600040E050E0CA01B901605A7C41894E9F4F7F
:10007000F3E0660F771F881F991FFA95D1F7E4E028
:10008000220F331F441F551FEA95D1F756D4215034
:1000900030408FEF8093F1008091F1008093F00069
:1000A00030BD29B986E880BD88E98AB97894089579
:1000B0008091F0008F3F11F4E0E01DC0E091F0006E
:1000C000FF27E7FDF095EE50FF4FE0819091F000A3
:1000D0008091F100981741F48FEF8093F1008091A7
:1000E000F1008093F00007C08091F0008F5F809353
:1000F000F0008091F0008E2F08955D9BFECF8CB9AB
:100100000895FC0104C05D9BFECF8CB931968081BF
:100110008823C9F70895EF92FF920F931F93CF930F
:10012000DF937C018B01C0E0D0E006C0C1DFF701A6
:10013000EC0FFD1F80832196C017D107B8F3DF9124
:10014000CF911F910F91FF90EF9008958091F00053
:100150008F3F11F490E01AC09091F0008091F1006F
:10016000981734F49091F1008091F0009F5F0DC0DA
:100170009091F0008091F100891714F091E006C091
:100180009091F1008091F0009F57981B892F08955E
:1001900001C08EDFDBDF8823E1F708951F920F9205
:1001A0000FB60F9211242F933F934F938F939F93EA
:1001B000EF93FF934CB18091F1008F3721F4809140
:1001C000F000882371F08091F1002091F0009927D0
:1001D00087FD90950196332727FD30958217930769
:1001E00039F48091F0008F5F8093F0008091F000EF
:1001F0008091F1008F3719F41092F10005C08091C1
:10020000F1008F5F8093F100E091F100FF27E7FD9F
:10021000F095EE50FF4F40838091F0008F3F11F436
:100220001092F000FF91EF919F918F914F913F912C
:100230002F910F900FBE0F901F901895282F6623B7
:1002400011F0A99A01C0A998AA9887B38F6087BBBB
:1002500098B3907F822F82958F70892B88BBAB9A41
:1002600000C0AB982F70292B28BBAB9A00C0AB986D
:100270009F6098BB089580E893E10197F1F782E0D1
:1002800090E00197F1F7A998AA9A87B3807F87BB7E
:10029000AB9A00C096B3AB9800C0AB9A00C086B3CF
:1002A0008F709295907FAB98892B08951F93182F8C
:1002B000E2DF812F60E0C2DF1F9108951F93182FA6
:1002C000DADF812F61E0BADF1F910895662311F410
:1002D000805801C08054EADF0895CDDF90E0089592
:1002E00081E0E4DF089582E0E1DF08951F93182F95
:1002F000C2DF1A3041F4803410F080E001C080E4A5
:100300008058D4DF03C0812F61E098DF1F910895EA
:10031000CF93DF93EC0101C0E9DF89918823E1F7F6
:10032000DF91CF910895CF93DF93EC0101C0DEDF21
:10033000FE01219684918823D1F7DF91CF91089512
:1003400087B38F6087BBA19AA29AA39A80E89EE3A5
:100350000197F1F7C19AC09AAB9A00C0AB9880E8B8
:1003600093E10197F1F7AB9A00C0AB9880E490E07D
:10037000FC013197F1F7AB9A00C0AB98FC013197C3
:10038000F1F7C098AB9A00C0AB980197F1F788E2FB
:100390008DDF88E08BDFA4DF86E088DF8CE086DFFE
:1003A000089580E060E092DF80E690E0B1DF80E0D9
:1003B00061E08CDF81E790E0ABDF0895EF92FF9280
:1003C0000F931F93CF93DF93C0E0D0E0A8EBEA2E0A
:1003D000ABE0FA2E08EA1EED83E090E060E070E00A
:1003E00041E050E0A9D1C7010197F1F783E090E027
:1003F00060E070E040E050E09FD1C8010197F1F764
:100400002196CF30D10541F7DF91CF911F910F9108
:10041000FF90EF900895EF92FF920F931F93CF9369
:10042000DF93C0E0D0E0B0E7EB2EB7E1FB2E00EFAA
:1004300012ED83E090E060E070E041E050E07CD1BC
:10044000C7010197F1F783E090E060E070E040E0E1
:1004500050E072D1C8010197F1F72196CF30D10554
:1004600041F7DF91CF911F910F91FF90EF90089589
:100470006DDE8930E8F384EF91E02CE231E0F901A0
:100480003197F1F70197D9F713DE12DE8EEC90E089
:1004900068E070E040DE8EEC90E060E070E040E10B
:1004A00050E06DD29C01442737FD4095542FB9018F
:1004B000CA010895CF92DF92EF92FF920F931F939C
:1004C000DF93CF93CDB7DEB783E090E065E070E0D7
:1004D00041E050E031D134DF80E895E2C0DD6EDFED
:1004E00060DFCDB6DEB60894C11CD11C00E010E080
:1004F0009CE2E92E91E0F92E84E090E063E070E068
:10050000C8D0892B31F5ECDE80E060E0DFDE80E8EA
:1005100090E0FEDE80E061E0D9DE8FE890E0F8DE7A
:10052000A7DFF801EE0FFF1FEC0DFD1D7183608347
:10053000D7DE80E060E0CADE8BE990E0E9DE88E9A2
:100540009AE3F7013197F1F70197D9F70F5F1F4F42
:1005500028DF83E090E065E070E09BD0892B61F6B6
:10056000BFDE80E060E0B2DE80E890E0D1DE80E0D7
:1005700061E0ACDE8BEA90E0CBDE7ADFAB01BC0160
:1005800020E030E0F601E20FF31F80819181AA277D
:1005900097FDA095BA2F481759076A077B0731F0D6
:1005A0002E5F3F4F2A30310569F719C099DE80E090
:1005B00060E08CDE85EB90E0ABDE2DDF80E395E73D
:1005C000F7013197F1F70197D9F7F8DE88E99AE357
:1005D000F7013197F1F70197D9F7E3DE8DCF80DE90
:1005E00080E060E073DE80EC90E092DEEFCF0F936E
:1005F0001F93DF93CF93CDB7DEB727970FB6F8944D
:10060000DEBF0FBECDBF8E010F5F1F4FB8014AE0A6
:1006100050E001D3C8017CDE27960FB6F894DEBF08
:100620000FBECDBFCF91DF911F910F910895DB01D8
:100630000D900020E9F71197A61BB70B4A2F50E049
:10064000D2D220E030E0892B11F421E030E0C90162
:1006500008950F931F93DF93CF93CDB7DEB72797FE
:100660000FB6F894DEBF0FBECDBF8E010F5F1F4FD8
:10067000A8012AE030E0EED2C80143DD27960FB68C
:10068000F894DEBF0FBECDBFCF91DF911F910F91C8
:1006900008958330C9F0843089F1823011F080E010
:1006A0000895693019F417BA86B3089587B321E025
:1006B00030E0062E02C0220F331F0A94E2F7209585
:1006C000282327BB86B312C0693019F414BA83B348
:1006D000089584B321E030E0062E02C0220F331FBC
:1006E0000A94E2F72095282324BB83B390E002C04C
:1006F000959587956A95E2F781700895693019F4A8
:1007000011BA80B3089531B381E090E0062E02C0A3
:10071000880F991F0A94E2F7282F2095232321BBE5
:1007200022B3822B82BB80B390E002C0959587955F
:100730006A95E2F7817008958330D1F1843009F42D
:100740006BC0823009F09BC06B3521F48FEF87BB03
:1007500048BB0895442321F0413009F090C014C0F3
:10076000693021F48FEF87BB18BA089587B321E071
:1007700030E002C0220F331F6A95E2F7822B87BB5D
:1007800088B32095282312C0693021F48FEF87BBEE
:1007900088BB089587B321E030E002C0220F331FE9
:1007A0006A95E2F7822B87BB88B3282B28BB089574
:1007B0006B3521F48FEF84BB45BB0895442321F0B2
:1007C000413009F05CC014C0693021F48FEF84BB64
:1007D00015BA089584B321E030E002C0220F331F20
:1007E0006A95E2F7822B84BB85B32095282312C03B
:1007F000693021F48FEF84BB85BB089584B321E079
:1008000030E002C0220F331F6A95E2F7822B84BBCF
:1008100085B3282B25BB08956B3521F48FEF81BB61
:1008200042BB0895442319F0413049F515C06930A1
:1008300021F48FEF81BB12BA089581B321E030E03B
:1008400002C0220F331F6A95E2F7822B81BB82B36D
:100850002095282322BB0895693021F48FEF81BBB6
:1008600082BB089581B321E030E002C0220F331F24
:100870006A95E2F7822B81BB82B3282B22BB0895B5
:10088000833019F1843009F43CC0823009F054C03F
:10089000442321F0413009F04FC00CC027B381E060
:1008A00090E002C0880F991F6A95E2F78095822335
:1008B00087BB089527B381E090E002C0880F991F9D
:1008C0006A95E2F7282B27BB0895442319F041309D
:1008D00099F50CC024B381E090E002C0880F991F05
:1008E0006A95E2F78095822384BB089524B381E062
:1008F00090E002C0880F991F6A95E2F7282B24BB6D
:100900000895442319F04130B9F40CC021B381E0BB
:1009100090E002C0880F991F6A95E2F780958223C4
:1009200081BB089521B381E090E002C0880F991F38
:100930006A95E2F7282B21BB0895A1E21A2EAA1B83
:10094000BB1BFD010DC0AA1FBB1FEE1FFF1FA2177F
:10095000B307E407F50720F0A21BB30BE40BF50B7C
:10096000661F771F881F991F1A9469F76095709505
:10097000809590959B01AC01BD01CF0108952F9208
:100980003F925F926F927F928F929F92AF92BF92AF
:10099000CF92DF92EF92FF920F931F93CF93DF934B
:1009A0008C011B01EA016115710519F0FB019183AE
:1009B0008083209749F0CE010297839728F020E0AA
:1009C00030E040E050E0F3C0F801A1908F018A2DA3
:1009D00090E001D1892BC1F7FDE2AF1631F4F801A7
:1009E000A1908F015524539407C0FBE2AF1619F470
:1009F000F801A1908F015524209719F0C031D1053D
:100A0000C1F4F0E3AF1679F4F8018081883711F072
:100A1000883549F4F801A1800E5F1F4FF2E05F2A8C
:100A2000C0E1D0E006C0209721F480E3A816E9F4E5
:100A300027C0C830D10531F1C930D10524F4C23006
:100A4000D10531F50CC0CA30D10589F0C031D105CE
:100A5000F9F4C12CD12CE12CB8E0FB2E27C0C12C1D
:100A6000D12CE12CA0E4FA2E21C0CAE0D0E0FCECAD
:100A7000CF2EFCECDF2EFCECEF2EFCE0FF2E16C0A0
:100A8000C8E0D0E0C12CD12CE12CE0E1FE2E0EC05C
:100A90009E01442737FD4095542F60E070E080E0D0
:100AA00090E84BDFC901DA016C017D0120E030E004
:100AB00040E050E060E03E01882477FC8094982C70
:100AC00070EDB72EBA0CE9E0EB1570F48A2D815465
:100AD0008A3118F499ECB92E06C08A2D81568A31D4
:100AE00048F589EAB82EBA0C8B2D90E08C179D073B
:100AF0000CF56F3FD9F0C216D306E406F506A8F050
:100B0000CA01B901A4019301EAD09B01AC012B0DEC
:100B1000311D411D511D2130F0E03F07F0E04F072E
:100B2000F0E85F0710F461E001C06FEFF801A190F9
:100B30008F01C6CF2114310481F0662331F00150BA
:100B40001040F1011183008308C051FE1AC0025009
:100B50001040F1011183008314C067FF12C050FCE4
:100B600005C02FEF3FEF4FEF5FE704C020E030E01C
:100B700040E050E882E290E090937301809372012C
:100B800016C050FE08C050954095309521953F4FB6
:100B90004F4F5F4F0CC057FF0AC082E290E0909326
:100BA0007301809372012FEF3FEF4FEF5FE7B901C1
:100BB000CA01DF91CF911F910F91FF90EF90DF90CD
:100BC000CF90BF90AF909F908F907F906F905F90ED
:100BD0003F902F90089591116FC0803219F0895085
:100BE0008550D0F70895FB01DC014150504088F05A
:100BF0008D9181341CF08B350CF4805E61916134F1
:100C00001CF06B350CF4605E861B611171F3990B5F
:100C10000895881BFCCFFB019F01E8944230BCF093
:100C20004532ACF44A3029F497FB1EF49095819537
:100C30009F4F642F772772D0805D8A330CF0895DD7
:100C40008193CB010097A9F716F45DE251931082CE
:100C5000C90135C0FA01CF93FF93EF9322303CF1E5
:100C600025322CF5C22FE894CA3049F497FB3EF4A4
:100C700090958095709561957F4F8F4F9F4F2C2F4A
:100C8000332744275527FF93EF9357DEEF91FF91CA
:100C9000605D6A330CF0695D6193B901CA0160500F
:100CA00070408040904059F716F4CDE2C193108215
:100CB0008F919F91CF9103C0992788270895DC01D8
:100CC000FC01672F71917723E1F7329704C07C9183
:100CD0006D9370836291AE17BF07C8F30895629F4A
:100CE000D001739FF001829FE00DF11D649FE00D24
:100CF000F11D929FF00D839FF00D749FF00D659F85
:100D0000F00D9927729FB00DE11DF91F639FB00D83
:100D1000E11DF91FBD01CF0111240895AA1BBB1BC2
:100D200051E107C0AA1FBB1FA617B70710F0A61BEB
:100D3000B70B881F991F5A95A9F780959095BC010C
:080D4000CD010895F894FFCFE6
:100D4800312E205245474953544552205553455258
:100D580000322E20564552494659205553455200D7
:100D6800504C414345205448452043415244005487
:100D78004F2052454749535445520043415244205D
:100D88005245474953544552454400544F2056450F
:100D9800524946590056414C494420555345520042
:0E0DA800494E56414C494420555345520000D7
:00000001FF
